:020000040800F2
:100000007806002029020008130600080F060008E1
:1000100011060008E3020008FD09000800000000C6
:100020000000000000000000000000006107000860
:10003000450400080000000085060008630700086A
:10004000430200084302000843020008430200087C
:10005000430200084302000843020008430200086C
:10006000430200084302000843020008430200085C
:10007000430200084302000843020008430200084C
:10008000430200084302000843020008430200083C
:10009000430200084302000843020008430200082C
:1000A000430200084302000843020008430200081C
:1000B000430200084302000843020008430200080C
:1000C00043020008430200084302000843020008FC
:1000D00043020008430200084302000843020008EC
:1000E00043020008430200084302000843020008DC
:1000F00069080008430200084302000843020008A0
:1001000043020008430200084302000843020008BB
:1001100043020008430200084302000843020008AB
:10012000430200084302000843020008430200089B
:10013000430200084302000843020008430200088B
:10014000430200084302000843020008430200087B
:10015000430200084302000843020008430200086B
:10016000430200084302000843020008430200085B
:10017000430200084302000843020008430200084B
:10018000430200084302000800F002F800F03CF8C7
:100190000AA090E8000C82448344AAF10107DA45E2
:1001A00001D100F031F8AFF2090EBAE80F0013F0F8
:1001B000010F18BFFB1A43F001031847880800001D
:1001C000A8080000103A24BF78C878C1FAD85207AE
:1001D00024BF30C830C144BF04680C6070470000C1
:1001E0000023002400250026103A28BF78C1FBD840
:1001F000520728BF30C148BF0B6070471FB500F0E1
:100200001BFC1FBD10B510BD00F031F81146FFF703
:10021000F5FF00F0F4FB00F04FF803B4FFF7F2FF36
:1002200003BC00F057F80000094880470948004720
:10023000FEE7FEE7FEE7FEE7FEE7FEE7FEE7FEE796
:10024000FEE7FEE704480549054A064B70470000F3
:100250006507000889010008780000207806002062
:10026000780200207802002070477047704775467A
:1002700000F02CF8AE4605006946534620F0070012
:10028000854618B020B5FFF7DDFFBDE820404FF0F0
:1002900000064FF000074FF000084FF0000B21F070
:1002A0000701AC46ACE8C009ACE8C009ACE8C0093D
:1002B000ACE8C0098D46704710B50446AFF3008026
:1002C0002046BDE81040FFF7A8BF00000048704777
:1002D0001400002001491820ABBEFEE726000200F2
:1002E0007047FEE72E484178002918BF704770B567
:1002F00001258CB045702946202000F0C5F9012168
:10030000802000F0CDF92802069002208DF81C0014
:1003100003208DF81D000024224E8DF81E408DF81C
:100320001F5006A9304600F019F90922082130466D
:1003300000F05CF942F2CF00ADF8200042F20F70FD
:10034000194E0990ADF82240ADF8284008A9304672
:1003500000F014FB6020ADF80000ADF802500294EC
:10036000ADF80C406946304600F0C9FA0821304625
:1003700000F0F9FA0121304600F096FA01213046EA
:1003800000F0A1FA2C208DF800008DF801408DF8C6
:1003900002408DF80350684600F03CF90CB070BD87
:1003A0000000002000140240001C004070B5234CE7
:1003B0002178884208BF70BD214D90B1012818D026
:1003C00002282DD0FFF78EFF41F28731284600F03A
:1003D000D0FA40F6C411284600F0CDFA0320207070
:1003E00070BDFFF77FFF0021284600F0C4FA00200F
:1003F000F5E7FFF777FF42F20F71284600F0B9FAF0
:1004000041F28831284600F0B6FA0121284600F072
:1004100054FA01221146284600F069FA0120DEE76D
:10042000FFF760FF42F20F71284600F0A2FA41F296
:100430008831284600F09FFA0220D0E70000002013
:10044000001C0040704700002DE9F04704460D46AF
:1004500088B0284304BF08B0BDE8F0870020354FBE
:100460008046D4F5FA714FF47A794FF4FA5A4FF086
:10047000E026A84132D204A800F01EF90598B8423F
:1004800030690AD240F00400306105984FF4FA71E7
:10049000B0FBF9F04843706109E020F004003061DE
:1004A00005984FF4FA71B0FBFAF048437061C6F852
:1004B0001880306940F001003061306910F4803FED
:1004C000FBD0306920F001003061B4F5FA7445F1D9
:1004D000FF350020D4F5FA71A841CCD3684600F06E
:1004E000EBF80198B842306909D240F0040030615D
:1004F0000198B0FBF9F0A0FB0401706108E020F066
:10050000040030610198B0FBFAF0A0FB04017061B7
:10051000C6F81880306940F001003061306910F48D
:10052000803FFBD0306920F00100306108B0BDE8A9
:10053000F087000000127A0070B505460C46204393
:1005400008BF70BD4FF47A700021FFF77DFF6D1E6C
:1005500044F1FF3455EA0400F4D170BD2DE9F001F7
:10056000002201255FF00306D1F800C005FA02F36E
:100570000CEA030C9C4533D107684FEA420C06FA9B
:100580000CF4A74307600F79D0F8008007FA0CF746
:1005900047EA080707600F79012F18BF022F14D10F
:1005A0008768A74387604F79D0F8088007FA0CF76F
:1005B00047EA08078760476827EA03034360436800
:1005C0008F799740BFB23B434360C368A343C36086
:1005D000CB7903FA0CF3D0F80CC043EA0C03C360E8
:1005E000521C102AC0D3BDE8F00170474B07DB0E48
:1005F0009A40C90800EB8100016A4FF00F0C0CFA19
:1006000003F399430162016A114301627047FEE7F7
:10061000FEE7704710B4C27801780F244FF0010C48
:100620000AB3174A126801F1E02102F4E062C2F550
:10063000E062C2F30722C2F10403D44042789A4038
:10064000837823401A43120181F80024007800F0D7
:100650001F010CFA01F14009800000F1E020C0F810
:10066000001110BC704701F01F000CFA00F049099E
:10067000890001F1E021C1F8800110BC7047000041
:100680000CED00E070470000044A0029116814BF17
:10069000084321EA00001060704700003038024033
:1006A000044A0029116814BF084321EA00001060C1
:1006B0007047000040380240254A30B41168254B8D
:1006C00011F00C0106D05C10042908BF046002D0B0
:1006D00008291ED0036011680F2303EA11111E4B75
:1006E000595CD0F800C02CFA01F14160D2F800C08A
:1006F000072404EA9C2C13F80CC021FA0CFCC0F867
:1007000008C0126804EA52329A5CD140C16030BC21
:1007100070471249D1F800C0CCF38055D1F800C021
:10072000002D0CF03F0C14BFB4FBFCF3B3FBFCF347
:10073000D1F800C00968CCF3881C03FB0CF3C1F3AB
:100740000141491C4900B3FBF1F10160C3E700001E
:10075000083802400024F40002000020043802405F
:1007600070477047374882B0016841F470010160FA
:100770003548016841F001010160344900230B60F4
:10078000026822F4102222F08072026000F1040C50
:100790002F4ACCF80020026822F4802202600A1D51
:1007A000136001930093026842F480320260026891
:1007B00002F400320092019A521C0192009A1AB976
:1007C000019AB2F5A04FF2D1026812F4003F08BFBF
:1007D000009331D0012200921E4A136843F08053E7
:1007E00013601D4A136843F4404313600A680A60AB
:1007F0000A6842F400420A600A6842F4A0520A60A1
:10080000164ACCF80020026842F08072026002684A
:1008100012F0007FFBD0124A40F2057010600868A9
:1008200020F003000860086840F0020008600868D3
:1008300000F00C000828FAD10A494FF00060086067
:1008400002B0704788ED00E00038024008380240EE
:100850001030002440380240007000400854400727
:10086000003C024008ED00E010B50D4C012120468F
:1008700000F032F8002808BF10BD0121204600F02A
:100880001FF800220121204600F031F8FFF72AFD71
:100890000021204600F06FF802490020087010BDCA
:1008A000001C0040000000200029018814BF41F016
:1008B000800121F0800101807047C94301827047A7
:1008C000C943018270470029018814BF41F001012A
:1008D00021F0010101807047038A002280890B42C8
:1008E00000EA01001CBF0028012210467047002AC0
:1008F000828914BF114322EA01018181704710B43B
:10090000028C22F001020284038C8288B0F818C0A5
:100910000C882CF0730C44EA0C0C8C8923F0020335
:1009200023434C882343A0F18044B4F580341CBF9A
:10093000A0F18044B4F582340DD1CC8923F00803B2
:1009400023438C8823F0040323430C8A22F440724F
:1009500022434C8A22438280A0F818C089684163F0
:10096000038410BC7047028B22F0080211430183FC
:100970007047C162704741637047000010B402883D
:100980001C4BDFF874C0984218BF604511D0B0F11D
:10099000804F1CBFA0F18044B4F5806409D0A0F161
:1009A0008044B4F500641CBFA0F18044B4F54064F9
:1009B00003D14C8822F070022243A0F18044B4F5A8
:1009C00080541CBFA0F18044B4F5A05403D00C891E
:1009D00022F44072224302804A68C2620A88028579
:1009E000984212BF6045897A01860121818210BC3C
:1009F000704700000000014000040140FEE70520B0
:100A00000021FFF799FD0120FFF7D0FC0520002110
:100A1000FFF792FD0220FFF7C9FC05200021FFF738
:100A20008BFD0320FFF7C2FC05200021FFF784FDAA
:100A30000020FFF7BBFCE2E74FF04070E1EE100A48
:100A400070470000640A0008000000201400000045
:100A5000C4010008780A00081400002064060000A1
:100A6000E001000800000000000001020304010290
:080A7000030406070809000059
:040000050800018965
:00000001FF
